S0150000546865427574746F6E47616D652E73726563F8
S11300000C942A000C9447000C9447000C9447006D
S11300100C9447000C9447000C9447000C94470040
S11300200C9447000C9447000C9447000C94470030
S11300300C9447000C9447000C9447000C94470020
S11300400C9447000C9447000C9447000C94470010
S11300500C94470011241FBECFE5D8E0DEBFCDBF0E
S113006010E0A0E6B0E0EAE0F3E002C005900D92F3
S1130070AE3BB107D9F720E0AEEBB0E001C01D9272
S1130080AB3CB207E1F70E9442010C9483010C944B
S11300900000E6ECF0E0108211820895CF93DF9324
S11300A0C82FD0E0FE01E056FF4F80810E9401017D
S11300B0882321F19E01220F331FF901EE53FF4FD4
S11300C080819181019691838083F901E254FF4FED
S11300D011821082893C91057CF1FE01E853FF4FA7
S11300E08081811103C081E0808329C0CC0FDD1F92
S11300F0CE53DF4F1982188280E021C09E01220F67
S1130100331FF901E254FF4F80819181019691835D
S11301108083F901EE53FF4F11821082893C9105CF
S11301206CF0FE01E853FF4F1082E901C254DF4F27
S11301301982188280E003C080E001C080E0DF9172
S1130140CF910895E0E6F0E020EA30E0A081B0E04D
S1130150CD01880F991FA80FB91FB195A195B109B9
S1130160DA969C91DA97418182818423892BDA96ED
S11301708C93A081B0E0CD01880F991FA80FB91FFF
S1130180B195A195B109DB964C91DB97918183815F
S11301908923928190958923842BDB968C933496C2
S11301A0E217F30799F60895E62FF0E0EE0FFF1F2C
S11301B0EE0FFF1FE05AFF4FA081B0E09D01220F18
S11301C0331FA20FB31FB195A195B109DB962C91F2
S11301D0DB97918190959223DB969C93A081B0E06C
S11301E09D01220F331FA20FB31FB195A195B10931
S11301F0DB969C91DB9721818223982BDB969C9341
S1130200089524E0829FC0011124DC01A05ABF4F4D
S11302102C9130E0F901EE0FFF1F2E0F3F1FEE2748
S1130220FF27E21BF30B91AD11968C91892308955E
S1130230E82FF0E0EE0FFF1FEE55FF4F8181809312
S1130240CA0060810E94D4000895E82FF0E0EE0F08
S1130250FF1FEE55FF4F818180958093CA00608116
S11302600E94D4000895CF93C82F0E9401018111E8
S113027004C08C2F0E94180103C08C2F0E942501FA
S1130280CF91089580E884BF84BF0E94A2000E9499
S1130290490007E010E0C0E0D0E080E00E944E009A
S11302A0882321F08C2F0E941801219681E00E945E
S11302B04E00882329F0802F0E9418010F5F1F4FE2
S11302C0C730D10581F00E30110539F71AC08C2FD3
S11302D00E94330187EA91E60197F1F700C000001C
S11302E0CF5FC730A1F7C0E0F2CF8C2F0E9433015B
S11302F087EA91E60197F1F700C00000CF5FCE30A6
S10D0300A1F7C7E0F2CFF894FFCF95
S113030A0001FF000002FF000004FF000008FF00D4
S113031A0010FF000020FF000040FF000201FF0060
S113032A0202FF000204FF000208FF000210FF009D
S113033A0220FF000240FF0000800000028000004B
S113034A0E0F00FF01FF02FF03FF04FF05FF06FF74
S111035A07FF08FF09FF0AFF0BFF0CFF0DFF52
S9030000FC
